{
    "contractName": "ERCToken",
    "abi": [
        {
            "constant": true,
            "inputs": [],
            "name": "name",
            "outputs": [
                {
                    "name": "",
                    "type": "string"
                }
            ],
            "payable": false,
            "stateMutability": "view",
            "type": "function"
        },
        {
            "constant": false,
            "inputs": [
                {
                    "name": "_spender",
                    "type": "address"
                },
                {
                    "name": "_value",
                    "type": "uint256"
                }
            ],
            "name": "approve",
            "outputs": [
                {
                    "name": "",
                    "type": "bool"
                }
            ],
            "payable": false,
            "stateMutability": "nonpayable",
            "type": "function"
        },
        {
            "constant": true,
            "inputs": [],
            "name": "totalSupply",
            "outputs": [
                {
                    "name": "",
                    "type": "uint256"
                }
            ],
            "payable": false,
            "stateMutability": "view",
            "type": "function"
        },
        {
            "constant": false,
            "inputs": [
                {
                    "name": "_from",
                    "type": "address"
                },
                {
                    "name": "_to",
                    "type": "address"
                },
                {
                    "name": "_value",
                    "type": "uint256"
                }
            ],
            "name": "transferFrom",
            "outputs": [
                {
                    "name": "",
                    "type": "bool"
                }
            ],
            "payable": false,
            "stateMutability": "nonpayable",
            "type": "function"
        },
        {
            "constant": true,
            "inputs": [],
            "name": "decimals",
            "outputs": [
                {
                    "name": "",
                    "type": "uint8"
                }
            ],
            "payable": false,
            "stateMutability": "view",
            "type": "function"
        },
        {
            "constant": false,
            "inputs": [
                {
                    "name": "_value",
                    "type": "uint256"
                }
            ],
            "name": "burn",
            "outputs": [
                {
                    "name": "",
                    "type": "bool"
                }
            ],
            "payable": false,
            "stateMutability": "nonpayable",
            "type": "function"
        },
        {
            "constant": true,
            "inputs": [
                {
                    "name": "",
                    "type": "address"
                }
            ],
            "name": "balanceOf",
            "outputs": [
                {
                    "name": "",
                    "type": "uint256"
                }
            ],
            "payable": false,
            "stateMutability": "view",
            "type": "function"
        },
        {
            "constant": true,
            "inputs": [],
            "name": "symbol",
            "outputs": [
                {
                    "name": "",
                    "type": "string"
                }
            ],
            "payable": false,
            "stateMutability": "view",
            "type": "function"
        },
        {
            "constant": true,
            "inputs": [],
            "name": "tokenOwner",
            "outputs": [
                {
                    "name": "",
                    "type": "address"
                }
            ],
            "payable": false,
            "stateMutability": "view",
            "type": "function"
        },
        {
            "constant": false,
            "inputs": [
                {
                    "name": "_to",
                    "type": "address"
                },
                {
                    "name": "_value",
                    "type": "uint256"
                }
            ],
            "name": "transfer",
            "outputs": [
                {
                    "name": "",
                    "type": "bool"
                }
            ],
            "payable": false,
            "stateMutability": "nonpayable",
            "type": "function"
        },
        {
            "constant": true,
            "inputs": [
                {
                    "name": "_owner",
                    "type": "address"
                }
            ],
            "name": "balanceOfToken",
            "outputs": [
                {
                    "name": "",
                    "type": "uint256"
                }
            ],
            "payable": false,
            "stateMutability": "view",
            "type": "function"
        },
        {
            "constant": false,
            "inputs": [
                {
                    "name": "_spender",
                    "type": "address"
                },
                {
                    "name": "_value",
                    "type": "uint256"
                },
                {
                    "name": "_extraData",
                    "type": "bytes"
                }
            ],
            "name": "approveAndCall",
            "outputs": [
                {
                    "name": "",
                    "type": "bool"
                }
            ],
            "payable": false,
            "stateMutability": "nonpayable",
            "type": "function"
        },
        {
            "constant": true,
            "inputs": [
                {
                    "name": "_owner",
                    "type": "address"
                },
                {
                    "name": "_spender",
                    "type": "address"
                }
            ],
            "name": "allowance",
            "outputs": [
                {
                    "name": "",
                    "type": "uint256"
                }
            ],
            "payable": false,
            "stateMutability": "view",
            "type": "function"
        },
        {
            "inputs": [],
            "payable": false,
            "stateMutability": "nonpayable",
            "type": "constructor"
        },
        {
            "anonymous": false,
            "inputs": [
                {
                    "indexed": true,
                    "name": "from",
                    "type": "address"
                },
                {
                    "indexed": true,
                    "name": "to",
                    "type": "address"
                },
                {
                    "indexed": false,
                    "name": "value",
                    "type": "uint256"
                }
            ],
            "name": "Transfer",
            "type": "event"
        },
        {
            "anonymous": false,
            "inputs": [
                {
                    "indexed": true,
                    "name": "owner",
                    "type": "address"
                },
                {
                    "indexed": true,
                    "name": "spender",
                    "type": "address"
                },
                {
                    "indexed": false,
                    "name": "value",
                    "type": "uint256"
                }
            ],
            "name": "Approval",
            "type": "event"
        },
        {
            "anonymous": false,
            "inputs": [
                {
                    "indexed": true,
                    "name": "from",
                    "type": "address"
                },
                {
                    "indexed": false,
                    "name": "value",
                    "type": "uint256"
                }
            ],
            "name": "Burn",
            "type": "event"
        }
    ],
    "bytecode": "6060604052341561000f57600080fd5b60008054600160a060020a03338116600160a060020a0319909216919091178083556b169e43a85eb381aa580000006001819055911682526002602052604090912055610842806100616000396000f3006060604052600436106100c45763ffffffff7c010000000000000000000000000000000000000000000000000000000060003504166306fdde0381146100c9578063095ea7b31461015357806318160ddd1461018957806323b872dd146101ae578063313ce567146101d657806342966c68146101ff57806370a082311461021557806395d89b4114610234578063a3e6761014610247578063a9059cbb14610276578063b99152d014610298578063cae9ca51146102b7578063dd62ed3e1461031c575b600080fd5b34156100d457600080fd5b6100dc610341565b60405160208082528190810183818151815260200191508051906020019080838360005b83811015610118578082015183820152602001610100565b50505050905090810190601f1680156101455780820380516001836020036101000a031916815260200191505b509250505060405180910390f35b341561015e57600080fd5b610175600160a060020a0360043516602435610378565b604051901515815260200160405180910390f35b341561019457600080fd5b61019c6103e4565b60405190815260200160405180910390f35b34156101b957600080fd5b610175600160a060020a03600435811690602435166044356103ea565b34156101e157600080fd5b6101e9610461565b60405160ff909116815260200160405180910390f35b341561020a57600080fd5b610175600435610466565b341561022057600080fd5b61019c600160a060020a036004351661052f565b341561023f57600080fd5b6100dc610541565b341561025257600080fd5b61025a610578565b604051600160a060020a03909116815260200160405180910390f35b341561028157600080fd5b610175600160a060020a0360043516602435610587565b34156102a357600080fd5b61019c600160a060020a036004351661059d565b34156102c257600080fd5b61017560048035600160a060020a03169060248035919060649060443590810190830135806020601f820181900481020160405190810160405281815292919060208401838380828437509496506105b895505050505050565b341561032757600080fd5b61019c600160a060020a03600435811690602435166106e6565b60408051908101604052600681527f6572632d32300000000000000000000000000000000000000000000000000000602082015281565b600160a060020a03338116600081815260036020908152604080832094871680845294909152808220859055909291907f8c5be1e5ebec7d5bd14f71427d1e84f3dd0314c0f7b2291e5b200ac8c7c3b9259085905190815260200160405180910390a350600192915050565b60015481565b600160a060020a0380841660009081526003602090815260408083203390941683529290529081205482111561041f57600080fd5b600160a060020a0380851660009081526003602090815260408083203390941683529290522080548390039055610457848484610711565b5060019392505050565b601281565b600160a060020a03331660009081526002602052604081205482111561048b57600080fd5b600160a060020a03331660008181526002602052604090819020805485900390556001805485900390557fcc16f5dbb4873280815c1ee09dbd06736cffcc184412cf7a71a0fdb75d397ca59084905190815260200160405180910390a2600033600160a060020a03167fddf252ad1be2c89b69c2b068fc378daa952ba7f163c4a11628f55a4df523b3ef8460405190815260200160405180910390a3506001919050565b60026020526000908152604090205481565b60408051908101604052600581527f4552433230000000000000000000000000000000000000000000000000000000602082015281565b600054600160a060020a031681565b6000610594338484610711565b50600192915050565b600160a060020a031660009081526002602052604090205490565b6000836105c58185610378565b156106de5780600160a060020a0316638f4ffcb1338630876040518563ffffffff167c01000000000000000000000000000000000000000000000000000000000281526004018085600160a060020a0316600160a060020a0316815260200184815260200183600160a060020a0316600160a060020a0316815260200180602001828103825283818151815260200191508051906020019080838360005b8381101561067b578082015183820152602001610663565b50505050905090810190601f1680156106a85780820380516001836020036101000a031916815260200191505b5095505050505050600060405180830381600087803b15156106c957600080fd5b5af115156106d657600080fd5b505050600191505b509392505050565b600160a060020a03918216600090815260036020908152604080832093909416825291909152205490565b6000600160a060020a038316151561072857600080fd5b600160a060020a03841660009081526002602052604090205482111561074d57600080fd5b600160a060020a0383166000908152600260205260409020548281011161077357600080fd5b50600160a060020a0380831660008181526002602052604080822080549488168084528284208054888103909155938590528154870190915591909301927fddf252ad1be2c89b69c2b068fc378daa952ba7f163c4a11628f55a4df523b3ef9085905190815260200160405180910390a3600160a060020a0380841660009081526002602052604080822054928716825290205401811461081057fe5b505050505600a165627a7a72305820f281773ad743d384bddfebb5a3c023342eeaf530d64557207a44f5da89e7b6170029",
    "sourcePath": "c:/VS_Solidity/Solidity_Token/Erc20.sol",
    "compiler": {
        "name": "solc",
        "version": "0.4.21+commit.dfe3193c"
    },
    "functionHashes": {
        "allowance(address,address)": "dd62ed3e",
        "approve(address,uint256)": "095ea7b3",
        "approveAndCall(address,uint256,bytes)": "cae9ca51",
        "balanceOf(address)": "70a08231",
        "balanceOfToken(address)": "b99152d0",
        "burn(uint256)": "42966c68",
        "decimals()": "313ce567",
        "name()": "06fdde03",
        "symbol()": "95d89b41",
        "tokenOwner()": "a3e67610",
        "totalSupply()": "18160ddd",
        "transfer(address,uint256)": "a9059cbb",
        "transferFrom(address,address,uint256)": "23b872dd"
    },
    "gasEstimates": {
        "creation": {
            "codeDepositCost": "422800",
            "executionCost": "60928",
            "totalCost": "483728"
        },
        "external": {
            "allowance(address,address)": "961",
            "approve(address,uint256)": "22355",
            "approveAndCall(address,uint256,bytes)": "infinite",
            "balanceOf(address)": "652",
            "balanceOfToken(address)": "815",
            "burn(uint256)": "44566",
            "decimals()": "270",
            "name()": "infinite",
            "symbol()": "infinite",
            "tokenOwner()": "702",
            "totalSupply()": "417",
            "transfer(address,uint256)": "44684",
            "transferFrom(address,address,uint256)": "65465"
        },
        "internal": {
            "_transfer(address,address,uint256)": "infinite"
        }
    }
}